:1000000012C02CC02BC02AC029C028C027C026C0BF
:1000100025C01EC123C022C021C020C01FC01EC0D9
:100020001DC01CC01BC011241FBECFE5D4E0DEBF25
:10003000CDBF10E0A0E6B0E0E6E1F7E002C0059039
:100040000D92A437B107D9F710E0A4E7B0E001C0E2
:100050001D92A838B107E1F77BD05BC3D1CF982FB1
:10006000EBE2F0E0808185FFFDCF9CB980E090E07D
:100070000895209174003091750085EB90E0AC01FB
:10008000249FC001259F900D349F900D1124895904
:100090009E4F9093750080937400892F0895E5E337
:1000A000F0E068EE73E040E751E08081816080839A
:1000B0009B01CA010197F1F721503040D1F78081AF
:1000C0008E7F80839B01CA010197F1F72150304058
:1000D000D1F7EBCFE5E3F0E068EE73E040E751E005
:1000E0008081826080839B01CA010197F1F72150D2
:1000F0003040D1F780818D7F80839B01CA010197B9
:10010000F1F721503040D1F7EBCFE5E3F0E064ECBC
:1001100079E040E751E08081846080839B01CA01DF
:100120000197F1F721503040D1F780818B7F808398
:100130009B01CA010197F1F721503040D1F7EBCF75
:10014000E5E5F0E080818068808378948895FACF37
:10015000E3E5F0E0808185608083E9E5F0E080817F
:100160008160808312BEE4E3F0E080818F60808351
:1001700083E088BB84E082BBEBE5F0E080818064B3
:100180008083F89480E690E09093850080938400CB
:100190008FE490E060E070E044E026E430E032D1AB
:1001A0008AE690E062E370E04AE026E430E02AD19B
:1001B00085E890E069E170E045E026E430E022D196
:1001C00082EF90E06EE170E04FE026E430E01AD17B
:1001D00080EA90E066E470E046E450E05FD180E0C1
:1001E00090E00895EF92FF920F931F93CF93DF93C8
:1001F00005E310E00F2EF8EBEF2EFBE0FF2EF02DC5
:10020000C0E7D1E0F8018081886080839701CE014A
:100210000197F1F721503040D1F7F8018081877FB5
:1002200080839701CE010197F1F721503040D1F73B
:1002300081E090E07BD0E6CF789480917600909139
:10024000770001969093770080937600F894089554
:100250001F920F920FB60F9211242F933F934F933B
:100260005F936F937F938F939F93AF93BF93EF931E
:10027000FF93ADE5B0E08D919C911197E0917A00EC
:10028000F0917B009783868380917800909179002C
:1002900011969C938E93D0DFFF91EF91BF91AF9118
:1002A0009F918F917F916F915F914F913F912F918E
:1002B0000F900FBE0F901F9018958091760090912F
:1002C00077000895E0917A00F0917B000380F4813B
:1002D000E02D09950F920FB6F8941F922F923F923E
:1002E0004F925F926F927F928F929F92AF92BF9246
:1002F000CF92DF92EF92FF920F931F932F933F9332
:100300004F935F936F937F938F939F93AF93BF931D
:10031000CF93DF93EF93FF930F928DB79EB7E0914A
:100320007A00F0917B00978386830EC0E0917A007B
:10033000F0917B0092838183E0917A00F0917B00C1
:1003400080E18583C7DF089560917C0070917D0016
:10035000AB01E0917A00F0917B00309741F085810C
:1003600090E083709070892B11F083E08583611594
:100370007105B1F0FB0130E085812081321738F43E
:1003800090E083709070892B11F0BF0101C0232F82
:100390000284F385E02D309711F0322FEDCFAB01C1
:1003A000FA0150937B0040937A00868197819EBF2B
:1003B0008DBF8581813009F422C00F90FF91EF91AC
:1003C000DF91CF91BF91AF919F918F917F916F916D
:1003D0005F914F913F912F911F910F91FF90EF905F
:1003E000DF90CF90BF90AF909F908F907F906F9055
:1003F0005F904F903F902F901F900FBE0F9082E024
:1004000085830895BF92CF92DF92EF92FF920F9370
:100410001F93CF93DF936C017B01B42E89018CE095
:1004200090E072D0EC01209719F421E030E02AC06E
:10043000C8016AD09C01398728872115310529F424
:10044000CE010FD121E030E01DC0C8010197F901B4
:10045000E80FF91F82E691E0808392933197FF8342
:10046000EE83B882FA82E982DC82CB8281E08D83DE
:10047000ECE7F0E0808191819B878A87D183C083FC
:1004800020E030E0822F932FDF91CF911F910F91C9
:10049000FF90EF90DF90CF90BF900895AF92BF9202
:1004A000CF92DF92EF92FF920F931F936C015B014B
:1004B0008A01E5E5F0E080818F788083CA0124D04D
:1004C000282F392F0F2EF8E7EF2EF0E0FF2EF02D1A
:1004D00001501040200F311FF70131832083C601E6
:1004E00060E070E040E095018DDFF701808191814F
:1004F0009EBF8DBF29CF1F910F91FF90EF90DF908E
:10050000CF90BF90AF900895CF93DF93BC0182301E
:10051000910510F462E070E0A0918000B09181003C
:10052000ED01E0E0F0E040E050E021C088819981F9
:100530008617970769F48A819B81309719F0938316
:10054000828304C09093810080938000FE0134C0B8
:100550006817790738F44115510519F08417950784
:1005600008F4AC01FE018A819B819C01E90120977E
:10057000E9F641155105A9F1CA01861B970B0497AD
:1005800008F4BA01E0E0F0E02AC08D919C91119747
:1005900084179507F9F46417750781F412968D9105
:1005A0009C911397309719F09383828304C09093A2
:1005B000810080938000FD0132964FC0CA01861BE6
:1005C000970BFD01E80FF91F6193719302978D93CB
:1005D0009C9343C0FD01828193819C01D9011097B6
:1005E000A1F680917E0090917F00892B41F480914B
:1005F00070009091710090937F0080937E004091F5
:100600007200509173004115510541F44DB75EB72A
:1006100080916E0090916F00481B590B20917E00D5
:1006200030917F0024173507B0F4CA01821B930B69
:100630008617970780F0AB014E5F5F4F84179507D1
:1006400050F0420F531F50937F0040937E00F901FA
:100650006193719302C0E0E0F0E0CF01DF91CF91B0
:100660000895CF93DF93009709F450C0EC012297CF
:100670001B821A82A0918000B0918100109709F12D
:1006800040E050E0AC17BD0708F1BB83AA83FE0130
:1006900021913191E20FF31FAE17BF0779F48D91CD
:1006A0009C911197280F391F2E5F3F4F3983288364
:1006B00012968D919C9113979B838A8341155105C6
:1006C00071F4D0938100C093800020C012968D9168
:1006D0009C911397AD01009711F0DC01D3CFFA0183
:1006E000D383C28321913191E20FF31FCE17DF072D
:1006F00069F488819981280F391F2E5F3F4FFA01D5
:10070000318320838A819B8193838283DF91CF9180
:060710000895F894FFCFEC
:1007160000000002000000002F0000000000200082
:040726008800000047
:00000001FF
